:02000000F02FDF
:100D5400F601F401F501831203130712080083124C
:100D6400031307170430F9000C30F8003330F70090
:100D7400F70BBA2EF80BBA2EF90BBA2EC12E83122A
:100D84000313071308007230831603138F008316AE
:100D94000317880189013E308316031385008601F9
:100DA400023087008312031386018701080070084C
:100DB4007104031DDE2EDF2EE32EF201F301003059
:100DC400FB2E07307302D03003197202031CEB2E82
:100DD400EC2EEE2E0130FB2E83120313851DF32E11
:100DE400F42EDF2E0130F2070318F30A0030F30764
:100DF400E12E0800700871040319012F022F222F1D
:100E0400013083120313A0070318A10A0030A107BD
:100E140000302102643003192002031C122F132F07
:100E2400282FA001A1010130FD067D181A2F1E2FC5
:100E3400831203130617212F831203130613282F7B
:100E4400831203130613A001A1017D1008005B2F78
:100E5400F401F5010130F600692F0130F40703189D
:100E6400F50A0030F5070130750290300319740259
:100E7400031C3D2F3E2F692FF401F5018312031348
:100E840007160230F600692F0130F4070318F50A3B
:100E94000030F50702307502583003197402031C40
:100EA400542F552F692F8312031307120330F600B2
:100EB400692F7608003A03192A2F013A03192F2FB4
:100EC400033A0319462F013A0319692F692F0800C1
:100ED400C52683120313220823040319722F732FC8
:100EE400842F06168718772F782F6B2FA201A30162
:100EF4000612F201F3010130F0000030F100061790
:100F040087156B2F8518872F882FA82F70087104D9
:100F140003198D2F8E2FA82FF001F10186120613CD
:100F24008711F201F3018617B1261530FC004B300E
:100F3400FB00BE30FA00FA0B9D2FFB0B9D2FFC0B20
:100F44009D2F0000831203138613AA268312031312
:100F54000519AD2FAE2FBD2F70087104031DB32FDB
:100F6400B42FBD2F0130F0000030F10006178715B3
:100F74008616B126CA2F0519C02FC12FC92F700894
:100F840071040319C62FC72FC92F8616CA2F8612BC
:100F9400700871040319CF2FD02FE52FFC262927C1
:100FA400D926003A0319D72FD82FE52FF001F101E4
:100FB4008312031306138612861387110130A200CD
:100FC4000030A300B1260D30FB00FB30FA00FA0B11
:100FD400E92FFB0BE92FEE2F6B2F0028FD01F00109
:100FE400F101F201F301F401F501F6018312031397
:0C0FF400A001A101A201A30183016A2F4A
:02400E00E423A9
:00000001FF
